{
  "_format": "hh-sol-artifact-1",
  "contractName": "Vendor",
  "sourceName": "contracts/Vendor.sol",
  "abi": [
    {
      "inputs": [
        {
          "internalType": "address",
          "name": "tokenAddress",
          "type": "address"
        }
      ],
      "stateMutability": "nonpayable",
      "type": "constructor"
    },
    {
      "anonymous": false,
      "inputs": [
        {
          "indexed": false,
          "internalType": "address",
          "name": "buyer",
          "type": "address"
        },
        {
          "indexed": false,
          "internalType": "uint256",
          "name": "amountOfETH",
          "type": "uint256"
        },
        {
          "indexed": false,
          "internalType": "uint256",
          "name": "amountOfTokens",
          "type": "uint256"
        }
      ],
      "name": "BuyTokens",
      "type": "event"
    },
    {
      "anonymous": false,
      "inputs": [
        {
          "indexed": true,
          "internalType": "address",
          "name": "previousOwner",
          "type": "address"
        },
        {
          "indexed": true,
          "internalType": "address",
          "name": "newOwner",
          "type": "address"
        }
      ],
      "name": "OwnershipTransferred",
      "type": "event"
    },
    {
      "anonymous": false,
      "inputs": [
        {
          "indexed": false,
          "internalType": "address",
          "name": "seller",
          "type": "address"
        },
        {
          "indexed": false,
          "internalType": "uint256",
          "name": "amountOfTokens",
          "type": "uint256"
        },
        {
          "indexed": false,
          "internalType": "uint256",
          "name": "amountOfETH",
          "type": "uint256"
        }
      ],
      "name": "SellTokens",
      "type": "event"
    },
    {
      "inputs": [],
      "name": "buyTokens",
      "outputs": [
        {
          "internalType": "uint256",
          "name": "tokenAmount",
          "type": "uint256"
        }
      ],
      "stateMutability": "payable",
      "type": "function"
    },
    {
      "inputs": [],
      "name": "owner",
      "outputs": [
        {
          "internalType": "address",
          "name": "",
          "type": "address"
        }
      ],
      "stateMutability": "view",
      "type": "function"
    },
    {
      "inputs": [],
      "name": "renounceOwnership",
      "outputs": [],
      "stateMutability": "nonpayable",
      "type": "function"
    },
    {
      "inputs": [
        {
          "internalType": "uint256",
          "name": "tokenAmountToSell",
          "type": "uint256"
        }
      ],
      "name": "sellTokens",
      "outputs": [],
      "stateMutability": "nonpayable",
      "type": "function"
    },
    {
      "inputs": [],
      "name": "tokensPerEth",
      "outputs": [
        {
          "internalType": "uint256",
          "name": "",
          "type": "uint256"
        }
      ],
      "stateMutability": "view",
      "type": "function"
    },
    {
      "inputs": [
        {
          "internalType": "address",
          "name": "newOwner",
          "type": "address"
        }
      ],
      "name": "transferOwnership",
      "outputs": [],
      "stateMutability": "nonpayable",
      "type": "function"
    },
    {
      "inputs": [],
      "name": "withdraw",
      "outputs": [],
      "stateMutability": "nonpayable",
      "type": "function"
    },
    {
      "inputs": [],
      "name": "yourToken",
      "outputs": [
        {
          "internalType": "contract YourToken",
          "name": "",
          "type": "address"
        }
      ],
      "stateMutability": "view",
      "type": "function"
    }
  ],
  "bytecode": "0x6080604052606460015534801561001557600080fd5b50604051610c0e380380610c0e833981016040819052610034916100b2565b61003d33610062565b600280546001600160a01b0319166001600160a01b03929092169190911790556100e0565b600080546001600160a01b038381166001600160a01b0319831681178455604051919092169283917f8be0079c531659141344cd1fd0a4f28419497f9722a3daafe3b4186f6b6457e09190a35050565b6000602082840312156100c3578081fd5b81516001600160a01b03811681146100d9578182fd5b9392505050565b610b1f806100ef6000396000f3fe60806040526004361061007b5760003560e01c80638da5cb5b1161004e5780638da5cb5b14610109578063cbdd69b514610127578063d0febe4c1461014b578063f2fde38b1461015357600080fd5b80633ccfd60b146100805780636c11bcd314610097578063715018a6146100b75780637879e84b146100cc575b600080fd5b34801561008c57600080fd5b50610095610173565b005b3480156100a357600080fd5b506100956100b2366004610a39565b6102b0565b3480156100c357600080fd5b5061009561065d565b3480156100d857600080fd5b506002546100ec906001600160a01b031681565b6040516001600160a01b0390911681526020015b60405180910390f35b34801561011557600080fd5b506000546001600160a01b03166100ec565b34801561013357600080fd5b5061013d60015481565b604051908152602001610100565b61013d610693565b34801561015f57600080fd5b5061009561016e3660046109eb565b610900565b6000546001600160a01b031633146101a65760405162461bcd60e51b815260040161019d90610a69565b60405180910390fd5b47806101fe5760405162461bcd60e51b815260206004820152602160248201527f4f776e657220686173206e6f742062616c616e636520746f20776974686472616044820152607760f81b606482015260840161019d565b604051600090339047908381818185875af1925050503d8060008114610240576040519150601f19603f3d011682016040523d82523d6000602084013e610245565b606091505b50509050806102ac5760405162461bcd60e51b815260206004820152602d60248201527f4661696c656420746f2073656e6420757365722062616c616e6365206261636b60448201526c103a37903a34329037bbb732b960991b606482015260840161019d565b5050565b600081116103155760405162461bcd60e51b815260206004820152602c60248201527f5370656369667920616e20616d6f756e74206f6620746f6b656e20677265617460448201526b6572207468616e207a65726f60a01b606482015260840161019d565b6002546040516370a0823160e01b81523360048201526000916001600160a01b0316906370a082319060240160206040518083038186803b15801561035957600080fd5b505afa15801561036d573d6000803e3d6000fd5b505050506040513d601f19601f820116820180604052508101906103919190610a51565b90508181101561040b576040805162461bcd60e51b81526020600482015260248101919091527f596f75722062616c616e6365206973206c6f776572207468616e20746865206160448201527f6d6f756e74206f6620746f6b656e7320796f752077616e7420746f2073656c6c606482015260840161019d565b60006001548361041b9190610a9e565b9050478181101561048d5760405162461bcd60e51b815260206004820152603660248201527f56656e646f7220686173206e6f7420656e6f7567682066756e647320746f206160448201527518d8d95c1d081d1a19481cd95b1b081c995c5d595cdd60521b606482015260840161019d565b6002546040516323b872dd60e01b8152336004820152306024820152604481018690526000916001600160a01b0316906323b872dd90606401602060405180830381600087803b1580156104e057600080fd5b505af11580156104f4573d6000803e3d6000fd5b505050506040513d601f19601f820116820180604052508101906105189190610a19565b90508061057d5760405162461bcd60e51b815260206004820152602d60248201527f4661696c656420746f207472616e7366657220746f6b656e732066726f6d207560448201526c39b2b9103a37903b32b73237b960991b606482015260840161019d565b60405133908490600081818185875af1925050503d80600081146105bd576040519150601f19603f3d011682016040523d82523d6000602084013e6105c2565b606091505b505080915050806106155760405162461bcd60e51b815260206004820152601e60248201527f4661696c656420746f2073656e642045544820746f2074686520757365720000604482015260640161019d565b60408051338152602081018790529081018490527fa24838acd4af5195a2396965dae5abf54e84e8c19f5698bb966ae64e29994ee59060600160405180910390a15050505050565b6000546001600160a01b031633146106875760405162461bcd60e51b815260040161019d90610a69565b610691600061099b565b565b60008034116106e45760405162461bcd60e51b815260206004820152601b60248201527f53656e642045544820746f2062757920736f6d6520746f6b656e730000000000604482015260640161019d565b6000600154346106f49190610abe565b6002546040516370a0823160e01b81523060048201529192506000916001600160a01b03909116906370a082319060240160206040518083038186803b15801561073d57600080fd5b505afa158015610751573d6000803e3d6000fd5b505050506040513d601f19601f820116820180604052508101906107759190610a51565b9050818110156107e45760405162461bcd60e51b815260206004820152603460248201527f56656e646f7220636f6e747261637420686173206e6f7420656e6f75676820746044820152736f6b656e7320696e206974732062616c616e636560601b606482015260840161019d565b60025460405163a9059cbb60e01b8152336004820152602481018490526000916001600160a01b03169063a9059cbb90604401602060405180830381600087803b15801561083157600080fd5b505af1158015610845573d6000803e3d6000fd5b505050506040513d601f19601f820116820180604052508101906108699190610a19565b9050806108b85760405162461bcd60e51b815260206004820181905260248201527f4661696c656420746f207472616e7366657220746f6b656e20746f2075736572604482015260640161019d565b604080513381523460208201529081018490527f0a37b72bb67eee30e09084cf386f8a17817c57f620c3ab95fb25d6a20356ec779060600160405180910390a1509092915050565b6000546001600160a01b0316331461092a5760405162461bcd60e51b815260040161019d90610a69565b6001600160a01b03811661098f5760405162461bcd60e51b815260206004820152602660248201527f4f776e61626c653a206e6577206f776e657220697320746865207a65726f206160448201526564647265737360d01b606482015260840161019d565b6109988161099b565b50565b600080546001600160a01b038381166001600160a01b0319831681178455604051919092169283917f8be0079c531659141344cd1fd0a4f28419497f9722a3daafe3b4186f6b6457e09190a35050565b6000602082840312156109fc578081fd5b81356001600160a01b0381168114610a12578182fd5b9392505050565b600060208284031215610a2a578081fd5b81518015158114610a12578182fd5b600060208284031215610a4a578081fd5b5035919050565b600060208284031215610a62578081fd5b5051919050565b6020808252818101527f4f776e61626c653a2063616c6c6572206973206e6f7420746865206f776e6572604082015260600190565b600082610ab957634e487b7160e01b81526012600452602481fd5b500490565b6000816000190483118215151615610ae457634e487b7160e01b81526011600452602481fd5b50029056fea26469706673582212200ffda8952079ea5e6bdc3a14fe1b6f4942cb1abdf8e8481dd67258e58dcf4ce064736f6c63430008040033",
  "linkReferences": {},
  "deployedLinkReferences": {}
}